{
  "contractName": "FirstContract",
  "abi": [
    {
      "inputs": [],
      "name": "getValue",
      "outputs": [
        {
          "internalType": "uint256",
          "name": "",
          "type": "uint256"
        }
      ],
      "stateMutability": "view",
      "type": "function",
      "constant": true
    },
    {
      "inputs": [
        {
          "internalType": "uint256",
          "name": "_value",
          "type": "uint256"
        }
      ],
      "name": "setValue",
      "outputs": [],
      "stateMutability": "nonpayable",
      "type": "function"
    },
    {
      "inputs": [],
      "name": "getMsgSender",
      "outputs": [
        {
          "internalType": "address",
          "name": "",
          "type": "address"
        }
      ],
      "stateMutability": "view",
      "type": "function",
      "constant": true
    }
  ],
  "bytecode": "0x60806040526000805534801561001457600080fd5b5061025d806100246000396000f3fe608060405234801561001057600080fd5b506004361061005e576000357c010000000000000000000000000000000000000000000000000000000090048063209652551461006357806355241077146100815780637a6ce2e11461009d575b600080fd5b61006b6100bb565b6040516100789190610152565b60405180910390f35b61009b6004803603810190610096919061019e565b6100c4565b005b6100a561010f565b6040516100b2919061020c565b60405180910390f35b60008054905090565b33600160006101000a81548173ffffffffffffffffffffffffffffffffffffffff021916908373ffffffffffffffffffffffffffffffffffffffff1602179055508060008190555050565b6000600160009054906101000a900473ffffffffffffffffffffffffffffffffffffffff16905090565b6000819050919050565b61014c81610139565b82525050565b60006020820190506101676000830184610143565b92915050565b600080fd5b61017b81610139565b811461018657600080fd5b50565b60008135905061019881610172565b92915050565b6000602082840312156101b4576101b361016d565b5b60006101c284828501610189565b91505092915050565b600073ffffffffffffffffffffffffffffffffffffffff82169050919050565b60006101f6826101cb565b9050919050565b610206816101eb565b82525050565b600060208201905061022160008301846101fd565b9291505056fea2646970667358221220ccb1c308f3c9bb297e333581ee48d8eff1927a07f31ad7daae17e923990e67bd64736f6c63430008130033",
  "immutableReferences": {},
  "source": "// SPDX-License-Identifier: MIT\n\npragma solidity ^0.8.0;\n\ncontract FirstContract {\n    uint value = 0;\n    address sender; \n    \n    function getValue() external view returns(uint) { \n        return value;\n    }\n    \n    function setValue(uint _value) external {\n        sender = msg.sender;\n        value = _value;\n    }\n    \n    function getMsgSender() external view returns(address) { \n        return sender;\n    }\n    \n    \n}",
  "sourcePath": "/Applications/AMPPS/www/dapp/SimpleStorageDapp_Nodejs/contracts/FirstContract.sol",
  "compiler": {
    "name": "solc",
    "version": "0.8.19+commit.7dd6d404.Emscripten.clang"
  },
  "schemaVersion": "3.4.13",
  "updatedAt": "2023-06-07T17:29:57.838Z",
  "networkType": "ethereum",
  "devdoc": {
    "kind": "dev",
    "methods": {},
    "version": 1
  },
  "userdoc": {
    "kind": "user",
    "methods": {},
    "version": 1
  }
}